S0160000566F6C7461676553656E73696E672E7372656365
S11300000C9434000C9449000C9449000C9449005D
S11300100C9449000C9449000C9449000C94490038
S11300200C9449000C9449000C9449000C94490028
S11300300C9449000C9449000C9449000C94490018
S11300400C9449000C9449000C9449000C94490008
S11300500C9449000C9449000C9449000C944900F8
S11300600C9449000C94490011241FBECFEFD8E032
S1130070DEBFCDBF11E0A0E0B1E0E8EFF2E002C0E6
S113008005900D92A831B107D9F70E94F1000C94A4
S11300907A010C9400001092C50087E68093C40096
S11300A088E08093C10086E08093C2000895909117
S11300B0C00095FFFCCF8093C6000895CF93DF93D3
S11300C0EC0103C00E945700219688818111FACF68
S11300D0DF91CF910895CF93DF93CDB7DEB7289703
S11300E00FB6F894DEBF0FBECDBF4AE0BE016F5F0E
S11300F07F4F0E944501CE0101960E945E00289622
S11301000FB6F894DEBF0FBECDBFDF91CF91089537
S11301108F929F92AF92BF92CF92DF92EF92FF9213
S1130120CF93DF939C01A8E8B3E10E9436016B01F1
S11301307C012FEF33E040E050E00E9414014901BC
S11301405A01C701B60128E13CE94FE050E00E94A2
S11301501401C9010E946B008EE20E945700C50180
S1130160B40128EE33E040E050E00E9414016B013A
S11301707C01EB016436710518F480E30E9457009A
S11301802A9718F480E30E945700C6010E946B006E
S113019080E091E00E945E00DF91CF91FF90EF90AC
S11301A0DF90CF90BF90AF909F908F90089580E4A0
S11301B080937C0087E880937A000895ECE7F0E070
S11301C08081807F8083EAE7F0E08081806480839F
S11301D080917A0086FDFCCF80917800909179001F
S11301E008950E944B000E94D7000E94DE00EC019B
S11301F083E091E00E945E00CE010E946B008AE0E1
S113020091E00E945E00CE010E94880085E191E0A9
S11302100E945E002FEF83EC99E0215080409040D3
S1130220E1F700C00000E1CFA1E21A2EAA1BBB1B1C
S1130230FD010DC0AA1FBB1FEE1FFF1FA217B307AE
S1130240E407F50720F0A21BB30BE40BF50B661FC4
S1130250771F881F991F1A9469F760957095809588
S113026090959B01AC01BD01CF010895A29FB001FF
S1130270B39FC001A39F700D811D1124911DB29FD6
S1130280700D811D1124911D0895BB274A3031F44E
S1130290992322F4BDE2909581959F4F0C945101CE
S11302A0BB27FB015527AA27880F991FAA1FA4174C
S11302B010F0A41B83955051B9F7A05DAA3308F040
S11302C0A95DA193009779F7B111B1931192CB0174
S11302D00C946A01DC01FC01672F71917723E1F72B
S11302E0329704C07C916D9370836291AE17BF07FF
S10B02F0C8F30895F894FFCF50
S11302F8205600414443203D2000566F6C746167CA
S10B030865203D20000D0A00F0
S9030000FC
