:100000000C94B1000C94CE000C94CE000C94CE0055
:100010000C94CE000C94CE000C94CE000C94CE0028
:100020000C94CE000C94CE000C94CE000C94CE0018
:100030000C94CE000C94CE000C9432010C94CE00A3
:100040000C94CE000C94CE000C94CE000C94CE00F8
:100050000C94CE000C94CE000C94CE000C94CE00E8
:100060000C94CE000C94CE0000407A10F35A00A0FD
:10007000724E18090010A5D4E80000E87648170071
:1000800000E40B54020000CA9A3B000000E1F505B1
:10009000000080969800000040420F000000A086FB
:1000A00001000000102700000000E803000000002D
:1000B0006400000000000A000000000001000000D1
:1000C00000002C76D888DC674F0823DFC1DFAE59EB
:1000D000E1B1B796E5E3E453C63AE651997696E87E
:1000E000E6C28426EB898C9B62ED407C6FFCEFBC02
:1000F0009C9F40F2BAA56FA5F490055A2AF75C932D
:100100006B6CF9676DC11BFCE0E40D47FEF520E662
:10011000B500D0ED902E0300943577050080841E45
:10012000080000204E0A000000C80C333333330FA0
:10013000986E12831141EF8D2114893BE65516CF3D
:10014000FEE6DB18D1844B381BF77C1D901DA4BB49
:10015000E424203284725E228100C9F124ECA1E5FE
:100160003D2711241FBECFEFD8E0DEBFCDBF11E089
:10017000A0E0B1E0E0EAF3E102C005900D92AC36F8
:10018000B107D9F721E0ACE6B1E001C01D92AF376D
:10019000B207E1F70E9460010C94CE090C940000B4
:1001A00080E480937C0087E880937A0008958770CC
:1001B000806480937C00EAE7F0E080818064808343
:1001C00080917A0086FDFCCFEAE7F0E080818064D0
:1001D000808380917A0086FDFCCF80917800909199
:1001E00079000895CF92DF92EF92FF92CF93DF9341
:1001F000D82FC0E0C12CD12C760108C08D2F0E94D1
:10020000D700C80ED91EE11CF11CCF5FC830B0F377
:10021000D701C601689412F8B695A795979587956A
:100220001694D1F7DF91CF91FF90EF90DF90CF90B0
:100230000895BC0180E090E00E94EC0520E030E0F1
:1002400040EA50E40E94A30620E030EC4FE754E47B
:100250000E947A05089520E030E040E250E40E94D8
:10026000080508951F920F920FB60F9211248F93D5
:100270009F93AF93BF9380916C0190916D01A0917A
:100280006E01B0916F010196A11DB11D80936C01AB
:1002900090936D01A0936E01B0936F01BF91AF91E8
:1002A0009F918F910F900FBE0F901F90189582E035
:1002B00084BD99EF97BD93E095BD80936E0008953E
:1002C000CF93DF93CDB7DEB76A970FB6F894DEBF52
:1002D0000FBECDBF0E948B040E94D0000E94E2039B
:1002E0000E9482020E9457017894412C512C3201C5
:1002F000812C912C54010E948F0280916C0190916D
:100300006D01A0916E01B0916F0188199909AA0938
:10031000BB094497A105B10550F080906C01909005
:100320006D01A0906E01B0906F010E9469048091F0
:100330006C0190916D01A0916E01B0916F018419D3
:100340009509A609B7098A3F9105A105B10598F25B
:1003500040906C0150906D0160906E0170906F0143
:100360000E9416036C010E941B037C010E94200363
:100370009E8B8D8BC6010E94E90469837A838B83EF
:100380009C830E94FB046D837E838F8398870E94E9
:1003900025036D877E878F87988BC7010E9419017F
:1003A00069877A878B879C870E942B01698B7A8B60
:1003B0008B8B9C8B8D899E890E9463036B017C01D2
:1003C0000E9475036D8B7E8B8F8B988F0E948604A5
:1003D0009A8F898F80E091E00E949E0443E06D81B6
:1003E0007E818F8198850E94C80485E091E00E94FB
:1003F0009E0487E091E00E949E0441E06D857E8529
:100400008F8598890E94C8048FE091E00E949E0425
:1004100081E191E00E949E0443E069817A818B81B1
:100420009C810E94C80485E091E00E949E0489E1BD
:1004300091E00E949E0442E069897A898B899C89B7
:100440000E94C8048FE191E00E949E0481E291E045
:100450000E949E0443E069857A858B859C850E9475
:10046000C80485E091E00E949E0489E291E00E9428
:100470009E0441E06D897E898F89988D0E94C80411
:1004800082E391E00E949E0484E391E00E949E0436
:1004900043E0C701B6010E94C80485E091E00E94D4
:1004A0009E048CE391E00E949E04898D9A8D0E94A7
:1004B000AB0486E491E00E949E040E940A0390E04F
:1004C0000E94AB048EE491E00E949E040E941003FF
:1004D00090E00E94AB0487E591E00E949E040E9498
:1004E000130390E00E94AB0480E691E00E949E041A
:1004F0000E940D0390E00E94AB0488E691E00E9408
:100500009E04F9CE87B1886087B987B1806187B9C9
:1005100088B1877F88B988B18F7E88B9089580E0D7
:100520000E94F200909375018093740181E00E9413
:10053000F200909373018093720182E00E94F200B6
:1005400090937101809370012091790121110BC06A
:1005500020917401309175012D37334068F021E00E
:100560002093790109C020917401309175012637DB
:10057000334010F41092790120917801211107C0C5
:100580008233924048F481E08093780105C08F3334
:10059000924010F010927801809172019091730155
:1005A0008B3E23E0920720F021E02093770102C0E8
:1005B000109277018F3A914020F481E08093760188
:1005C00002C01092760180917901811108C080915A
:1005D0007801811104C080917701882321F088B1CE
:1005E000806188B903C088B18F7E88B98091790114
:1005F000811108C080917801811104C08091760139
:10060000882321F088B1886088B9089588B1877FF0
:1006100088B90895809179010895809178010895AD
:1006200080917701089580917601089580917401F9
:1006300090917501089580917201909173010895D0
:1006400080917001909171010895CF92DF92EF92A5
:10065000FF926B017C0120E030E040E250E40E9418
:10066000750518161CF520E030E040E650E4C7019F
:10067000B6010E949E068823ECF4A7019601C701EB
:10068000B6010E94A30620E030E048EC50E40E944E
:10069000080520E030E040EC50E40E947A0520E0BC
:1006A00030E048EC52E40E94A30608C060E070E02D
:1006B000CB0104C060E070E088EC92E4FF90EF9022
:1006C000DF90CF900895BC0180E090E00E94EC059F
:1006D00020E030E040EA50E40E94A30620E030EC45
:1006E0004FE754E40E947A050895CF92DF92EF928B
:1006F000FF926B017C0129E23CE54FE250E40E944D
:100700009E068823DCF0A70196016AE077ED8BE86E
:1007100090E40E94080520E030E040E252E40E94AC
:10072000A30626ED33EA40ED5FE30E947A0520E060
:1007300030E048EC51E40E9409053FC027ED33EA60
:1007400040E250E4C701B6010E949E068823DCF017
:10075000A701960169E27CE58FE290E40E9408051A
:1007600020E030E040EA50E40E94A30620E235E8B1
:100770004BE65EE30E947A0520E030E042E852E476
:100780000E9409051AC0A701960167ED73EA80E28D
:1007900090E40E94080520E030E040E751E40E9428
:1007A000A30628E431EE4AE35FE30E947A0520E0E5
:1007B00030E04CE852E40E940905FF90EF90DF9092
:1007C000CF90089587B18F7D87B988B18F7D88B923
:1007D00084B1846084B985B18B7F85B91092800023
:1007E000109281001092850010928400089587B1C4
:1007F000806287B988B18F7D88B92AE62A95F1F79A
:1008000000C087B18F7D87B988B18F7D88B910927C
:1008100085001092840082E0809381000CC080915A
:10082000840090918500883E934028F010928100CA
:1008300088EE93E00895359BF2CF809184009091EB
:100840008500109281000895CF92DF92EF92FF927F
:10085000CF93C0E0C12CD12C760123C00E94F703B6
:1008600090937D0180937C0180917C0190917D012A
:10087000883E934038F088EE93E090937B0180931C
:100880007A0121C080917C0190917D01C80ED91E12
:10089000E11CF11C8FE99FE00197F1F700C0000017
:1008A000CF5FC830D8F2689412F8F694E794D794E2
:1008B000C7941694D1F7D0927B01C0927A018091AF
:1008C0007A0190917B01CF91FF90EF90DF90CF90D4
:1008D00008950E942404883E23E09207B0F42091FA
:1008E0007E0121110AC08F36910578F081E0809356
:1008F0007E0185B1846085B908958035910528F41D
:1009000010927E0185B18B7F85B9089580917A011F
:1009100090917B0108951092C50087E68093C400F2
:1009200088E08093C10086E08093C2000895909192
:10093000C00095FFFCCF8093C6000895CF93DF934E
:10094000EC0103C00E949704219688818111FACF9F
:10095000DF91CF910895CF93DF93CDB7DEB728977E
:100960000FB6F894DEBF0FBECDBF4AE0BE016F5F89
:100970007F4F0E943007CE0101960E949E04289668
:100980000FB6F894DEBF0FBECDBFDF91CF910895B3
:100990000F931F93CF93DF93CDB7DEB760970FB65A
:1009A000F894DEBF0FBECDBF242F8E010F5F1F4F07
:1009B00041E00E941007C8010E949E0460960FB695
:1009C000F894DEBF0FBECDBFDF91CF911F910F9185
:1009D0000895BC0180E090E00E94EC0520E030E04A
:1009E00040EA50E40E94A30620E030EC4FE754E4D4
:1009F0000E947A05089527E837EA49E151E40E9408
:100A0000090523EB3AEE4FE750E40E947A0508957A
:100A10005058BB27AA270E9420050C9464060E9408
:100A2000560638F00E945D0620F039F49F3F19F415
:100A300026F40C9453060EF4E095E7FB0C944D0657
:100A4000E92F0E94750658F3BA17620773078407E7
:100A5000950720F079F4A6F50C9497060EF4E0952E
:100A60000B2EBA2FA02D0B01B90190010C01CA0168
:100A7000A0011124FF27591B99F0593F50F4503E13
:100A800068F11A16F040A22F232F342F4427585F05
:100A9000F3CF469537952795A795F0405395C9F71D
:100AA0007EF41F16BA0B620B730B840BBAF09150D5
:100AB000A1F0FF0FBB1F661F771F881FC2F70EC074
:100AC000BA0F621F731F841F48F487957795679547
:100AD000B795F7959E3F08F0B0CF9395880F08F033
:100AE0009927EE0F9795879508950E94290608F497
:100AF00081E008950E948E050C9464060E945D06B4
:100B000058F00E94560640F029F45F3F29F00C94FB
:100B10004D0651110C9498060C9453060E947506CC
:100B200068F39923B1F3552391F3951B550BBB271C
:100B3000AA2762177307840738F09F5F5F4F220F61
:100B4000331F441FAA1FA9F335D00E2E3AF0E0E858
:100B500032D091505040E695001CCAF72BD0FE2FA2
:100B600029D0660F771F881FBB1F26173707480736
:100B7000AB07B0E809F0BB0B802DBF01FF279358EE
:100B80005F4F3AF09E3F510578F00C944D060C945F
:100B900098065F3FE4F3983ED4F386957795679582
:100BA000B795F7959F5FC9F7880F911D9695879523
:100BB00097F90895E1E0660F771F881FBB1F621742
:100BC00073078407BA0720F0621B730B840BBA0B00
:100BD000EE1F88F7E0950895E89409C097FB3EF46E
:100BE00090958095709561957F4F8F4F9F4F99237A
:100BF000A9F0F92F96E9BB279395F69587957795F8
:100C00006795B795F111F8CFFAF4BB0F11F460FFB7
:100C10001BC06F5F7F4F8F4F9F4F16C0882311F00F
:100C200096E911C0772321F09EE8872F762F05C023
:100C3000662371F096E8862F70E060E02AF09A95BE
:100C4000660F771F881FDAF7880F9695879597F9B3
:100C50000895990F0008550FAA0BE0E8FEEF16164D
:100C60001706E807F907C0F012161306E407F507A0
:100C700098F0621B730B840B950B39F40A2661F014
:100C8000232B242B252B21F408950A2609F4A140B7
:100C9000A6958FEF811D811D089597F99F6780E8C4
:100CA00070E060E008959FEF80EC089500240A94BE
:100CB0001616170618060906089500240A94121637
:100CC0001306140605060895092E0394000C11F46A
:100CD000882352F0BB0F40F4BF2B11F460FF04C017
:100CE0006F5F7F4F8F4F9F4F089557FD9058440F70
:100CF000551F59F05F3F71F04795880F97FB991F7B
:100D000061F09F3F79F08795089512161306140637
:100D1000551FF2CF4695F1DF08C0161617061806C4
:100D2000991FF1CF86957105610508940895E8949F
:100D3000BB2766277727CB0197F908950E942906DC
:100D400008F48FEF08950E94B6060C9464060E9482
:100D5000560638F00E945D0620F0952311F00C94A1
:100D60004D060C94530611240C9498060E947506A7
:100D700070F3959FC1F3950F50E0551F629FF001EE
:100D8000729FBB27F00DB11D639FAA27F00DB11D07
:100D9000AA1F649F6627B00DA11D661F829F222790
:100DA000B00DA11D621F739FB00DA11D621F839F17
:100DB000A00D611D221F749F3327A00D611D231FED
:100DC000849F600D211D822F762F6A2F11249F573B
:100DD00050409AF0F1F088234AF0EE0FFF1FBB1F3E
:100DE000661F771F881F91505040A9F79E3F5105FD
:100DF00080F00C944D060C9498065F3FE4F3983E07
:100E0000D4F3869577956795B795F795E7959F5FA6
:100E1000C1F7FE2B880F911D9695879597F9089538
:100E2000EF920F931F93CF93DF93E80147FD02C02A
:100E300034E001C034E1042E000C550B57FF03C011
:100E4000519541955109E32E022F242FAE010E94A6
:100E50005507CE01DF91CF911F910F91EF9008952B
:100E6000BB274A3031F4992322F4BDE29095819555
:100E70009F4F0C943C07BB27FB015527AA27880FDF
:100E8000991FAA1FA41710F0A41B83955051B9F7FE
:100E9000A05DAA3308F0A95DA193009779F7B1117D
:100EA000B1931192CB010C948709A9E0B0E0EBE576
:100EB000F7E00C949D096A01122FB02E2BE3201746
:100EC00020F0FF24F394F00E02C02CE3F22E0F2D3D
:100ED00027E0AE014F5F5F4F0E94AF08BC01498120
:100EE000842F8970813031F0E1FC06C0E0FE06C03D
:100EF00090E205C09DE203C09BE201C090E05E2D40
:100F0000507143FF3CC0911102C083E001C084E0F6
:100F1000811718F4212F281B01C020E051110BC0AC
:100F2000F601822F30E2882319F031938150FBCFF4
:100F3000C20ED11C20E0992329F0D6019C93F60122
:100F400031966F01C6010396E2FE0AC03EE4D60167
:100F50003C9341E411964C93119712963C9306C032
:100F60003EE6F601308341E641833283FC01322FB5
:100F700040E2332309F442C041933150FACF42FF9B
:100F800044C0911102C083E001C084E0811718F4CD
:100F9000212F281B01C020E051110BC0F601822F28
:100FA00030E2882319F031938150FBCFC20ED11C5F
:100FB00020E0992329F0D6019C93F60131966F0128
:100FC000C6010396E2FE0BC039E4D6013C933EE431
:100FD00011963C93119736E412963C9307C039E67C
:100FE000F60130833EE6318336E63283FC01322F50
:100FF00040E2332319F041933150FBCFFC01E20F63
:10100000F11D10828EEF9FEFA6C021E030E091111C
:1010100002C020E030E0161617061CF4FB013196E2
:1010200002C0E1E0F0E02E0F3F1FBB2021F0EB2DCE
:10103000F0E0319602C0E0E0F0E02E0F3F1FE12F1C
:10104000F0E02E173F071CF4121B212F01C020E0F7
:101050008E2D887159F4F601822F30E2882319F021
:1010600031938150FBCFC20ED11C20E0992329F08F
:10107000D6019C93F60131966F0151110BC0F60118
:10108000822F90E3882319F091938150FBCFC20EF9
:10109000D11C20E00F2D060F9A81342F307144FFB0
:1010A00003C0913309F40150101624F4093018F0EC
:1010B00008E001C001E0AB0177FF02C040E050E072
:1010C000FB01E41BF50BA1E0B0E0AC0FBD1FEA0F84
:1010D000FB1F8EE2A82E4B01801A91080B2D10E009
:1010E0001195019511094F3FBFEF5B0721F4D60120
:1010F000AC9211966D01641775072CF08416950655
:1011000014F4818101C080E3415051093196D60128
:1011100011967D014017510724F0D6018C93670189
:10112000E2CF6417750739F4963320F4953319F438
:10113000311101C081E3F6018083F701822F90E233
:10114000882319F091938150FBCFF701E20FF11D35
:10115000108280E090E02996ECE00C94B9092830E8
:1011600008F027E03327DA01990F311D87FD9160E0
:1011700000966105710539F432602E5F3D9330E3CE
:101180002A95E1F708959F3F30F080387105610599
:1011900009F03C5F3C5F3D93913008F08068911D01
:1011A000DF93CF931F930F93FF92EF92192F987FA6
:1011B0009695E92F96959695E90FFF27EE53FF4FE9
:1011C00099273327EE24FF24A701E701059008940F
:1011D000079428F4360FE71EF81E491F511D660FAD
:1011E000771F881F991F0694A1F70590079428F48C
:1011F000E70EF81E491F561FC11D770F881F991F44
:10120000661F0694A1F70590079428F4F80E491F6D
:10121000561FC71FD11D880F991F661F771F069481
:10122000A1F70590079420F4490F561FC71FD81F38
:10123000990F661F771F881F0694A9F78491109550
:10124000177041F0D695C79557954795F794E79451
:101250001A95C1F7E8E6F0E068941590159135917C
:101260006591959105907FE27395E118F10A430B22
:10127000560BC90BD009C0F7E10CF11E431F561FD6
:10128000C91FD01D7EF4703311F48A95E6CFE8941F
:10129000015030F0080F0AF40027021708F4202F3D
:1012A0002395022F7A3328F079E37D932A95E9F785
:1012B00010C07D932A9589F6069497956795379582
:1012C00017951794E118F10A430B560BC90BD00977
:1012D00098F023957E9173957A3308F070E37C93B0
:1012E0002013B8F77E9170617D9330F0839571E3A0
:1012F0007D9370E32A95E1F71124EF90FF900F9111
:101300001F91CF91DF91992787FD90950895DC017A
:10131000FC01672F71917723E1F7329704C07C912C
:101320006D9370836291AE17BF07C8F308952F9233
:101330003F924F925F926F927F928F929F92AF9265
:10134000BF92CF92DF92EF92FF920F931F93CF93B2
:10135000DF93CDB7DEB7CA1BDB0B0FB6F894DEBF49
:101360000FBECDBF09942A88398848885F846E846F
:101370007D848C849B84AA84B984C884DF80EE80B9
:10138000FD800C811B81AA81B981CE0FD11D0FB6C2
:10139000F894DEBF0FBECDBFED010895F894FFCFE6
:1013A0005673633D005600207C20536F453D002559
:1013B00000207C205676733D00207C20493D004172
:1013C00000207C205669733D00207C2054656D70A0
:1013D0003D004300207C205674733D00207C205447
:1013E0006F7563683D00207C204F56503D00207C87
:1013F00020424F43503D00207C20434F43503D004E
:0C140000207C204F54503D000D0A0000DD
:00000001FF
