:100000000C94B1000C94CE000C94CE000C94CE0055
:100010000C94CE000C94CE000C94CE000C94CE0028
:100020000C94CE000C94CE000C94CE000C94CE0018
:100030000C94CE000C94CE000C94CE000C94CE0008
:100040000C94CE000C94CE000C94CE000C94CE00F8
:100050000C94CE000C94CE000C94CE000C94CE00E8
:100060000C94CE000C94CE0000407A10F35A00A0FD
:10007000724E18090010A5D4E80000E87648170071
:1000800000E40B54020000CA9A3B000000E1F505B1
:10009000000080969800000040420F000000A086FB
:1000A00001000000102700000000E803000000002D
:1000B0006400000000000A000000000001000000D1
:1000C00000002C76D888DC674F0823DFC1DFAE59EB
:1000D000E1B1B796E5E3E453C63AE651997696E87E
:1000E000E6C28426EB898C9B62ED407C6FFCEFBC02
:1000F0009C9F40F2BAA56FA5F490055A2AF75C932D
:100100006B6CF9676DC11BFCE0E40D47FEF520E662
:10011000B500D0ED902E0300943577050080841E45
:10012000080000204E0A000000C80C333333330FA0
:10013000986E12831141EF8D2114893BE65516CF3D
:10014000FEE6DB18D1844B381BF77C1D901DA4BB49
:10015000E424203284725E228100C9F124ECA1E5FE
:100160003D2711241FBECFEFD8E0DEBFCDBF11E089
:10017000A0E0B1E0E4EBF0E102C005900D92AA34FA
:10018000B107D9F721E0AAE4B1E001C01D92AC3477
:10019000B207E1F70E94D0000C9458080C940000BC
:1001A000CF93DF9300D000D000D0CDB7DEB70E9450
:1001B000BB020E9419030E9470010E9448020E9423
:1001C00049010E9456010E948C029E838D830E94E9
:1001D00040030E9469034B015C010E947B032B01D9
:1001E0003C010E9491010E94BA016B017C010E94B6
:1001F000CC0169837A838B839C8380E091E00E94A9
:10020000CE0243E0C501B4010E94F80287E091E00C
:100210000E94CE028AE091E00E94CE0243E0C70134
:10022000B6010E94F80287E091E00E94CE0286E1CA
:1002300091E00E94CE0243E0C301B2010E94F802A5
:1002400087E091E00E94CE0288E291E00E94CE0217
:1002500041E069817A818B819C810E94F80285E36B
:1002600091E00E94CE0288E391E00E94CE028D814F
:100270009E810E94DB0286E491E00E94CE022FEF75
:1002800084E39CE0215080409040E1F700C00000F2
:1002900098CF87B1886087B987B1806187B988B105
:1002A000877F88B988B18F7E88B908950E948803B6
:1002B0000E9439020E949403811104C00E944502E9
:1002C000882339F088B1886088B988B1806188B99D
:1002D000089588B1877F88B988B18F7E88B90895DD
:1002E00087B18B7F87B988B18B7F88B9089582E405
:1002F00080937C00EAE7F0E08081806480838091D5
:100300007A0086FDFCCFEAE7F0E08081806480839C
:1003100080917A0086FDFCCF8091780090917900E1
:100320000895CF92DF92EF92FF92CF93C0E0C12C5D
:10033000D12C76010DC00E947701C80ED91EE11C98
:10034000F11C8FE99FE00197F1F700C00000CF5F3B
:10035000C83088F3D701C601689412F8B695A795FE
:10036000979587951694D1F7CF91FF90EF90DF90F6
:10037000CF900895BC0180E090E00E94760420E0D8
:1003800030E040EA50E40E94090520E030EC4FE7FD
:1003900054E40E9404040895CF92DF92EF92FF92FA
:1003A0006B017C0129E23CE54FE250E40E94040528
:1003B0008823DCF0A70196016AE077ED8BE890E4F2
:1003C0000E94970320E030E040E252E40E940905D9
:1003D00026ED33EA40ED5FE30E94040420E030E0C4
:1003E00048EC51E40E9498033FC027ED33EA40E215
:1003F00050E4C701B6010E9404058823DCF0A70180
:10040000960169E27CE58FE290E40E94970320E088
:1004100030E040EA50E40E94090520E235E84BE66E
:100420005EE30E94040420E030E042E852E40E94CF
:1004300098031AC0A701960167ED73EA80E290E481
:100440000E94970320E030E040E751E40E94090554
:1004500028E431EE4AE35FE30E94040420E030E048
:100460004CE852E40E949803FF90EF90DF90CF9009
:1004700008950E9491018330924020F481E080939E
:100480004A01089510924A01089580914A01089501
:1004900087B18F7D87B988B18F7D88B984B1846039
:1004A00084B985B18B7F85B910928000109281004C
:1004B0001092850010928400089587B1806287B9F8
:1004C00088B18F7D88B987EC90E00197F1F700C083
:1004D000000087B18F7D87B988B18F7D88B9109270
:1004E00085001092840082E0809381000CC080918E
:1004F000840090918500883E934028F010928100FE
:1005000088EE93E00895359BF2CF8091840090911E
:100510008500109281000895CF92DF92EF92FF92B2
:10052000CF93C0E0C12CD12C760111C00E945D0296
:10053000883E23E09207B8F4C80ED91EE11CF11CD6
:100540008FE99FE00197F1F700C00000CF5FC8304E
:1005500068F3689412F8F694E794D794C7941694C5
:10056000D1F7C60102C088EE93E0CF91FF90EF90E3
:10057000DF90CF9008951092C50087E68093C40065
:1005800088E08093C10086E08093C2000895909136
:10059000C00095FFFCCF8093C6000895CF93DF93F2
:1005A000EC0103C00E94C702219688818111FACF15
:1005B000DF91CF910895CF93DF93CDB7DEB7289722
:1005C0000FB6F894DEBF0FBECDBF4AE0BE016F5F2D
:1005D0007F4F0E94BA05CE0101960E94CE02289656
:1005E0000FB6F894DEBF0FBECDBFDF91CF91089557
:1005F0000F931F93CF93DF93CDB7DEB760970FB6FE
:10060000F894DEBF0FBECDBF242F8E010F5F1F4FAA
:1006100041E00E949A05C8010E94CE0260960FB682
:10062000F894DEBF0FBECDBFDF91CF911F910F9128
:10063000089587B18E7F87B988B18E7F88B980E4AD
:1006400080937C0087E880937A00089580E480930B
:100650007C00EAE7F0E080818064808380917A000A
:1006600086FDFCCFEAE7F0E08081806480838091A2
:100670007A0086FDFCCF80917800909179000895F2
:10068000CF92DF92EF92FF92CF93C0E0C12CD12C9A
:1006900076010DC00E942603C80ED91EE11CF11C74
:1006A0008FE99FE00197F1F700C00000CF5FC830ED
:1006B00088F3D701C601689412F8B695A795979567
:1006C00087951694D1F7CF91FF90EF90DF90CF9060
:1006D0000895BC0180E090E00E94760420E030E0C4
:1006E00040EA50E40E94090520E030EC4FE754E472
:1006F0000E94040408952EEC3AEA4CE151E40E9471
:10070000980320E33BEB41E850E40E940404089581
:100710000E9440038438934020F081E080934B0195
:10072000089510924B01089580914B0108955058FF
:10073000BB27AA270E94AF030C94CA040E94BC04E2
:1007400038F00E94C30420F039F49F3F19F426F4D6
:100750000C94B9040EF4E095E7FB0C94B304E92F74
:100760000E94DB0458F3BA176207730784079507E2
:1007700020F079F4A6F50C94FD040EF4E0950B2E10
:10078000BA2FA02D0B01B90190010C01CA01A001E3
:100790001124FF27591B99F0593F50F4503E68F13E
:1007A0001A16F040A22F232F342F4427585FF3CF7F
:1007B000469537952795A795F0405395C9F77EF450
:1007C0001F16BA0B620B730B840BBAF09150A1F099
:1007D000FF0FBB1F661F771F881FC2F70EC0BA0F1F
:1007E000621F731F841F48F4879577956795B795A7
:1007F000F7959E3F08F0B0CF9395880F08F09927A2
:10080000EE0F9795879508950E9418040C94CA04DA
:100810000E94C30458F00E94BC0440F029F45F3FDA
:1008200029F00C94B30451110C94FE040C94B904F7
:100830000E94DB0468F39923B1F3552391F3951BD0
:10084000550BBB27AA2762177307840738F09F5FF1
:100850005F4F220F331F441FAA1FA9F335D00E2E5E
:100860003AF0E0E832D091505040E695001CCAF7CB
:100870002BD0FE2F29D0660F771F881FBB1F26178E
:1008800037074807AB07B0E809F0BB0B802DBF0165
:10089000FF2793585F4F3AF09E3F510578F00C9434
:1008A000B3040C94FE045F3FE4F3983ED4F38695C2
:1008B00077956795B795F7959F5FC9F7880F911D55
:1008C0009695879597F90895E1E0660F771F881F41
:1008D000BB1F621773078407BA0720F0621B730BF4
:1008E000840BBA0BEE1F88F7E0950895E89409C0D1
:1008F00097FB3EF490958095709561957F4F8F4F53
:100900009F4F9923A9F0F92F96E9BB279395F69568
:10091000879577956795B795F111F8CFFAF4BB0FE6
:1009200011F460FF1BC06F5F7F4F8F4F9F4F16C04A
:10093000882311F096E911C0772321F09EE8872FD4
:10094000762F05C0662371F096E8862F70E060E090
:100950002AF09A95660F771F881FDAF7880F969509
:10096000879597F9089597F99F6780E870E060E0B0
:1009700008959FEF80EC089500240A941616170638
:1009800018060906089500240A9412161306140680
:1009900005060895092E0394000C11F4882352F0E3
:1009A000BB0F40F4BF2B11F460FF04C06F5F7F4F9B
:1009B0008F4F9F4F089557FD9058440F551F59F082
:1009C0005F3F71F04795880F97FB991F61F09F3F3C
:1009D00079F087950895121613061406551FF2CF65
:1009E0004695F1DF08C0161617061806991FF1CFB5
:1009F00086957105610508940895E894BB276627DC
:100A00007727CB0197F908950E94760508F48FEFB8
:100A100008950E941C050C94CA040E94BC0438F07E
:100A20000E94C30420F0952311F00C94B3040C949D
:100A3000B90411240C94FE040E94DB0470F3959F0A
:100A4000C1F3950F50E0551F629FF001729FBB27C5
:100A5000F00DB11D639FAA27F00DB11DAA1F649F61
:100A60006627B00DA11D661F829F2227B00DA11D14
:100A7000621F739FB00DA11D621F839FA00D611D9A
:100A8000221F749F3327A00D611D231F849F600DBB
:100A9000211D822F762F6A2F11249F5750409AF0E4
:100AA000F1F088234AF0EE0FFF1FBB1F661F771F70
:100AB000881F91505040A9F79E3F510580F00C943B
:100AC000B3040C94FE045F3FE4F3983ED4F38695A0
:100AD00077956795B795F795E7959F5FC1F7FE2BDB
:100AE000880F911D9695879597F90895990F00089D
:100AF000550FAA0BE0E8FEEF16161706E807F907F0
:100B0000C0F012161306E407F50798F0621B730B8A
:100B1000840B950B39F40A2661F0232B242B252B0B
:100B200021F408950A2609F4A140A6958FEF811DAE
:100B3000811D0895EF920F931F93CF93DF93E801E8
:100B400047FD02C034E001C034E1042E000C550B17
:100B500057FF03C0519541955109E32E022F242FD1
:100B6000AE010E94DF05CE01DF91CF911F910F9161
:100B7000EF900895BB274A3031F4992322F4BDE267
:100B8000909581959F4F0C94C605BB27FB01552777
:100B9000AA27880F991FAA1FA41710F0A41B8395DA
:100BA0005051B9F7A05DAA3308F0A95DA193009751
:100BB00079F7B111B1931192CB010C941108A9E00E
:100BC000B0E0E5EEF5E00C9427086A01122FB02E94
:100BD0002BE3201720F0FF24F394F00E02C02CE347
:100BE000F22E0F2D27E0AE014F5F5F4F0E943907B5
:100BF000BC014981842F8970813031F0E1FC06C04D
:100C0000E0FE06C090E205C09DE203C09BE201C089
:100C100090E05E2D507143FF3CC0911102C083E013
:100C200001C084E0811718F4212F281B01C020E0A7
:100C300051110BC0F601822F30E2882319F0319355
:100C40008150FBCFC20ED11C20E0992329F0D601A0
:100C50009C93F60131966F01C6010396E2FE0AC02D
:100C60003EE4D6013C9341E411964C9311971296C1
:100C70003C9306C03EE6F601308341E64183328371
:100C8000FC01322F40E2332309F442C0419331503A
:100C9000FACF42FF44C0911102C083E001C084E05A
:100CA000811718F4212F281B01C020E051110BC01F
:100CB000F601822F30E2882319F031938150FBCF67
:100CC000C20ED11C20E0992329F0D6019C93F60195
:100CD00031966F01C6010396E2FE0BC039E4D601DE
:100CE0003C933EE411963C93119736E412963C9364
:100CF00007C039E6F60130833EE6318336E63283BB
:100D0000FC01322F40E2332319F041933150FBCFE5
:100D1000FC01E20FF11D10828EEF9FEFA6C021E0D3
:100D200030E0911102C020E030E0161617061CF4E6
:100D3000FB01319602C0E1E0F0E02E0F3F1FBB2027
:100D400021F0EB2DF0E0319602C0E0E0F0E02E0F54
:100D50003F1FE12FF0E02E173F071CF4121B212F3D
:100D600001C020E08E2D887159F4F601822F30E207
:100D7000882319F031938150FBCFC20ED11C20E0A3
:100D8000992329F0D6019C93F60131966F015111F8
:100D90000BC0F601822F90E3882319F091938150C4
:100DA000FBCFC20ED11C20E00F2D060F9A81342FED
:100DB000307144FF03C0913309F40150101624F43C
:100DC000093018F008E001C001E0AB0177FF02C074
:100DD00040E050E0FB01E41BF50BA1E0B0E0AC0FFC
:100DE000BD1FEA0FFB1F8EE2A82E4B01801A91084F
:100DF0000B2D10E01195019511094F3FBFEF5B07D7
:100E000021F4D601AC9211966D01641775072CF090
:100E10008416950614F4818101C080E34150510984
:100E20003196D60111967D014017510724F0D60165
:100E30008C936701E2CF6417750739F4963320F479
:100E4000953319F4311101C081E3F6018083F70174
:100E5000822F90E2882319F091938150FBCFF70104
:100E6000E20FF11D108280E090E02996ECE00C94F6
:100E70004308283008F027E03327DA01990F311DA5
:100E800087FD916000966105710539F432602E5F2F
:100E90003D9330E32A95E1F708959F3F30F0803885
:100EA0007105610509F03C5F3C5F3D93913008F0AE
:100EB0008068911DDF93CF931F930F93FF92EF9262
:100EC000192F987F9695E92F96959695E90FFF270C
:100ED000EE53FF4F99273327EE24FF24A701E701A4
:100EE00005900894079428F4360FE71EF81E491F52
:100EF000511D660F771F881F991F0694A1F7059053
:100F0000079428F4E70EF81E491F561FC11D770FDE
:100F1000881F991F661F0694A1F70590079428F46F
:100F2000F80E491F561FC71FD11D880F991F661F36
:100F3000771F0694A1F70590079420F4490F561FD8
:100F4000C71FD81F990F661F771F881F0694A9F720
:100F500084911095177041F0D695C7955795479590
:100F6000F794E7941A95C1F7E8E6F0E068941590D5
:100F7000159135916591959105907FE27395E118F2
:100F8000F10A430B560BC90BD009C0F7E10CF11E57
:100F9000431F561FC91FD01D7EF4703311F48A956C
:100FA000E6CFE894015030F0080F0AF4002702174A
:100FB00008F4202F2395022F7A3328F079E37D93CC
:100FC0002A95E9F710C07D932A9589F6069497959E
:100FD0006795379517951794E118F10A430B560B4F
:100FE000C90BD00998F023957E9173957A3308F058
:100FF00070E37C932013B8F77E9170617D9330F09D
:10100000839571E37D9370E32A95E1F71124EF90C6
:10101000FF900F911F91CF91DF91992787FD9095B8
:101020000895DC01FC01672F71917723E1F7329776
:1010300004C07C916D9370836291AE17BF07C8F3B3
:1010400008952F923F924F925F926F927F928F926C
:101050009F92AF92BF92CF92DF92EF92FF920F9347
:101060001F93CF93DF93CDB7DEB7CA1BDB0B0FB651
:10107000F894DEBF0FBECDBF09942A88398848880E
:101080005F846E847D848C849B84AA84B984C884A4
:10109000DF80EE80FD800C811B81AA81B981CE0F9B
:1010A000D11D0FB6F894DEBF0FBECDBFED01089580
:0410B000F894FFCFE2
:1010B400567673203D200020560020207C202056A8
:1010C4007473203D200020207C20205673757065A9
:1010D40072636170203D200020207C202054656DC7
:1010E40070203D200020430020207C2020546F7578
:0A10F4006368203D20000D0A000093
:00000001FF
