:100000000C9434000C9451000C9451000C94510049
:100010000C9451000C9451000C9451000C9451001C
:100020000C9451000C9451000C9451000C9451000C
:100030000C9451000C9451000C9451000C945100FC
:100040000C9451000C9451000C9451000C945100EC
:100050000C9451000C9451000C9451000C945100DC
:100060000C9451000C94510011241FBECFEFD8E026
:10007000DEBFCDBF11E0A0E0B1E0E8EDF3E002C0EB
:1000800005900D92AE32B107D9F721E0AEE2B1E0B2
:1000900001C01D92A033B207E1F70E9453000C94F7
:1000A000EA010C9400000E9420010E9490000E942E
:1000B0005D010E9403010E94A6010E94D4008C01F0
:1000C0000E947D01EC0180E091E00E943301C801B3
:1000D0000E94400189E091E00E943301CE010E941C
:1000E000400184E191E00E9433010E94B201882323
:1000F00029F08FE191E00E94330104C085E291E094
:100100000E9433018AE291E00E9433012FEF81EED9
:1001100094E0215080409040E1F700C00000C9CF3A
:1001200087B18F7D87B988B18F7D88B984B18460AC
:1001300084B985B18B7F85B91092800010928100BF
:100140001092850010928400089587B1806287B96B
:1001500088B18F7D88B987EC90E00197F1F700C0F6
:10016000000087B18F7D87B988B18F7D88B91092E3
:1001700085001092840082E0809381000CC0809101
:10018000840090918500883E934028F01092810071
:1001900088EE93E00895359BF2CF80918400909192
:1001A0008500109281000895CF92DF92EF92FF9226
:1001B000CF93C0E0C12CD12C760111C00E94A500C4
:1001C000883E23E09207B8F4C80ED91EE11CF11C4A
:1001D0008FE99FE00197F1F700C00000CF5FC830C2
:1001E00068F3689412F8F694E794D794C794169439
:1001F000D1F7C60102C088EE93E0CF91FF90EF9057
:10020000DF90CF9008950E94D400883E23E09207AB
:10021000B0F420912E0121110AC08937910578F0A0
:1002200081E080932E0185B1846085B908958A3577
:10023000910528F410922E0185B18B7F85B9089520
:100240001092C50087E68093C40088E08093C100C7
:1002500086E08093C20008959091C00095FFFCCF86
:100260008093C6000895CF93DF93EC0103C00E94F2
:100270002C01219688818111FACFDF91CF910895C9
:10028000CF93DF93CDB7DEB728970FB6F894DEBFD4
:100290000FBECDBF4AE0BE016F5F7F4F0E94B50128
:1002A000CE0101960E94330128960FB6F894DEBF66
:1002B0000FBECDBFDF91CF91089587B18E7F87B9F3
:1002C00088B18E7F88B980E480937C0087E8809332
:1002D0007A000895ECE7F0E08081807F8083EAE790
:1002E000F0E080818064808380917A0086FDFCCF7D
:1002F00080917800909179000895CF92DF92EF92EB
:10030000FF92CF93C0E0C12CD12C76010DC00E948A
:100310006A01C80ED91EE11CF11C8FE99FE001970C
:10032000F1F700C00000CF5FC83088F3D701C601E5
:10033000689412F8B695A795979587951694D1F776
:10034000CF91FF90EF90DF90CF9008950E947D01B4
:100350008438934020F081E080932F01089510921B
:100360002F01089580912F010895BB274A3031F461
:10037000992322F4BDE2909581959F4F0C94C10181
:10038000BB27FB015527AA27880F991FAA1FA4176F
:1003900010F0A41B83955051B9F7A05DAA3308F063
:1003A000A95DA193009779F7B111B1931192CB0197
:1003B0000C94DA01DC01FC01672F71917723E1F7DE
:1003C000329704C07C916D9370836291AE17BF0722
:0803D000C8F30895F894FFCF73
:1003D800546F756368203D2000202020204144434D
:1003E800203D2000202020204F5650203D20004650
:0E03F80041554C540053414645000D0A00008B
:00000001FF
