:100000000C94B1000C94CE000C94CE000C94CE0055
:100010000C94CE000C94CE000C94CE000C94CE0028
:100020000C94CE000C94CE000C94CE000C94CE0018
:100030000C94CE000C94CE000C94CE000C94CE0008
:100040000C94CE000C94CE000C94CE000C94CE00F8
:100050000C94CE000C94CE000C94CE000C94CE00E8
:100060000C94CE000C94CE0000407A10F35A00A0FD
:10007000724E18090010A5D4E80000E87648170071
:1000800000E40B54020000CA9A3B000000E1F505B1
:10009000000080969800000040420F000000A086FB
:1000A00001000000102700000000E803000000002D
:1000B0006400000000000A000000000001000000D1
:1000C00000002C76D888DC674F0823DFC1DFAE59EB
:1000D000E1B1B796E5E3E453C63AE651997696E87E
:1000E000E6C28426EB898C9B62ED407C6FFCEFBC02
:1000F0009C9F40F2BAA56FA5F490055A2AF75C932D
:100100006B6CF9676DC11BFCE0E40D47FEF520E662
:10011000B500D0ED902E0300943577050080841E45
:10012000080000204E0A000000C80C333333330FA0
:10013000986E12831141EF8D2114893BE65516CF3D
:10014000FEE6DB18D1844B381BF77C1D901DA4BB49
:10015000E424203284725E228100C9F124ECA1E5FE
:100160003D2711241FBECFEFD8E0DEBFCDBF11E089
:10017000A0E0B1E0E4E2F1E102C005900D92AA3402
:10018000B107D9F721E0AAE4B1E001C01D92A13581
:10019000B207E1F70E94D0000C9490080C94000084
:1001A000CF93DF9300D000D000D0CDB7DEB70E9450
:1001B000F3020E9451030E9472010E944A020E94AF
:1001C0004B010E9458010E94D1020E94EE029E83C0
:1001D0008D830E9478030E94A1034B015C010E9461
:1001E000B3032B013C010E9493010E94BC016B01EF
:1001F0007C010E94CE0169837A838B839C8380E09B
:1002000091E00E94060343E0C501B4010E9430035F
:1002100087E091E00E9406038AE091E00E940603D5
:1002200043E0C701B6010E94300387E091E00E94DD
:10023000060386E191E00E94060343E0C301B20198
:100240000E94300387E091E00E94060388E291E07B
:100250000E94060341E069817A818B819C810E9422
:10026000300385E391E00E94060388E391E00E9459
:1002700006038D819E810E94130386E491E00E9413
:1002800006032FEF84E39CE0215080409040E1F78B
:1002900000C0000096CF87B1886087B987B18061C0
:1002A00087B988B1877F88B988B18F7E88B908956A
:1002B0000E94C0030E943B020E94CC03811104C033
:1002C0000E944702882339F088B1886088B988B1D4
:1002D000806188B9089588B1877F88B988B18F7E99
:1002E00088B9089587B18B7F87B988B18B7F88B92A
:1002F000089582E480937C00EAE7F0E080818064E6
:10030000808380917A0086FDFCCFEAE7F0E080816F
:100310008064808380917A0086FDFCCF8091780094
:10032000909179000895CF92DF92EF92FF92CF9350
:10033000C0E0C12CD12C76010DC00E947901C80EFD
:10034000D91EE11CF11C8FE99FE00197F1F700C075
:100350000000CF5FC83088F3D701C601689412F857
:10036000B695A795979587951694D1F7CF91FF905D
:10037000EF90DF90CF900895BC0180E090E00E9464
:10038000AE0420E030E040EA50E40E94410520E065
:1003900030EC4FE754E40E943C040895CF92DF9282
:1003A000EF92FF926B017C0129E23CE54FE250E4C1
:1003B0000E943C058823DCF0A70196016AE077EDF6
:1003C0008BE890E40E94CF0320E030E040E252E46A
:1003D0000E94410526ED33EA40ED5FE30E943C04B4
:1003E00020E030E048EC51E40E94D0033FC027ED0C
:1003F00033EA40E250E4C701B6010E943C0588237D
:10040000DCF0A701960169E27CE58FE290E40E94AE
:10041000CF0320E030E040EA50E40E94410520E2B2
:1004200035E84BE65EE30E943C0420E030E042E821
:1004300052E40E94D0031AC0A701960167ED73EA47
:1004400080E290E40E94CF0320E030E040E751E4F6
:100450000E94410528E431EE4AE35FE30E943C0438
:1004600020E030E04CE852E40E94D003FF90EF908F
:10047000DF90CF9008950E9493018330924020F442
:1004800081E080934A01089510924A010895809175
:100490004A01089587B18F7D87B988B18F7D88B96A
:1004A00084B1846084B985B18B7F85B91092800056
:1004B000109281001092850010928400089587B1F7
:1004C000806287B988B18F7D88B92AE62A95F1F7CD
:1004D00000C087B18F7D87B988B18F7D88B91092B0
:1004E00085001092840082E0809381000CC080918E
:1004F000840090918500883E934028F010928100FE
:1005000088EE93E00895359BF2CF8091840090911E
:100510008500109281000895CF92DF92EF92FF92B2
:10052000CF93C0E0C12CD12C760123C00E945F0282
:1005300090934E0180934D0180914D0190914E0119
:10054000883E934038F088EE93E090934C0180937E
:100550004B0121C080914D0190914E01C80ED91ED2
:10056000E11CF11C8FE99FE00197F1F700C000004A
:10057000CF5FC830D8F2689412F8F694E794D79415
:10058000C7941694D1F7D0924C01C0924B01809140
:100590004B0190914C01CF91FF90EF90DF90CF9065
:1005A00008950E948C02883E23E09207B0F42091C7
:1005B0004F0121110AC08F36910578F081E08093B8
:1005C0004F0185B1846085B908958035910528F47F
:1005D00010924F0185B18B7F85B9089580914B01B1
:1005E00090914C0108951092C50087E68093C40055
:1005F00088E08093C10086E08093C20008959091C6
:10060000C00095FFFCCF8093C6000895CF93DF9381
:10061000EC0103C00E94FF02219688818111FACF6C
:10062000DF91CF910895CF93DF93CDB7DEB72897B1
:100630000FB6F894DEBF0FBECDBF4AE0BE016F5FBC
:100640007F4F0E94F205CE0101960E940603289674
:100650000FB6F894DEBF0FBECDBFDF91CF910895E6
:100660000F931F93CF93DF93CDB7DEB760970FB68D
:10067000F894DEBF0FBECDBF242F8E010F5F1F4F3A
:1006800041E00E94D205C8010E94060360960FB6A1
:10069000F894DEBF0FBECDBFDF91CF911F910F91B8
:1006A000089587B18E7F87B988B18E7F88B980E43D
:1006B00080937C0087E880937A00089580E480939B
:1006C0007C00EAE7F0E080818064808380917A009A
:1006D00086FDFCCFEAE7F0E0808180648083809132
:1006E0007A0086FDFCCF8091780090917900089582
:1006F000CF92DF92EF92FF92CF93C0E0C12CD12C2A
:1007000076010DC00E945E03C80ED91EE11CF11CCB
:100710008FE99FE00197F1F700C00000CF5FC8307C
:1007200088F3D701C601689412F8B695A7959795F6
:1007300087951694D1F7CF91FF90EF90DF90CF90EF
:100740000895BC0180E090E00E94AE0420E030E01B
:1007500040EA50E40E94410520E030EC4FE754E4C9
:100760000E943C04089527E837EA49E151E40E94D9
:10077000D00323EB3AEE4FE750E40E943C04089587
:100780000E9478038238934020F081E080935001EA
:100790000895109250010895809150010895505885
:1007A000BB27AA270E94E7030C9402050E94F404C9
:1007B00038F00E94FB0420F039F49F3F19F426F42E
:1007C0000C94F1040EF4E095E7FB0C94EB04E92F94
:1007D0000E94130558F3BA17620773078407950739
:1007E00020F079F4A6F50C9435050EF4E0950B2E67
:1007F000BA2FA02D0B01B90190010C01CA01A00173
:100800001124FF27591B99F0593F50F4503E68F1CD
:100810001A16F040A22F232F342F4427585FF3CF0E
:10082000469537952795A795F0405395C9F77EF4DF
:100830001F16BA0B620B730B840BBAF09150A1F028
:10084000FF0FBB1F661F771F881FC2F70EC0BA0FAE
:10085000621F731F841F48F4879577956795B79536
:10086000F7959E3F08F0B0CF9395880F08F0992731
:10087000EE0F9795879508950E9450040C940205F9
:100880000E94FB0458F00E94F40440F029F45F3FFA
:1008900029F00C94EB0451110C9436050C94F104DE
:1008A0000E94130568F39923B1F3552391F3951B27
:1008B000550BBB27AA2762177307840738F09F5F81
:1008C0005F4F220F331F441FAA1FA9F335D00E2EEE
:1008D0003AF0E0E832D091505040E695001CCAF75B
:1008E0002BD0FE2F29D0660F771F881FBB1F26171E
:1008F00037074807AB07B0E809F0BB0B802DBF01F5
:10090000FF2793585F4F3AF09E3F510578F00C94C3
:10091000EB040C9436055F3FE4F3983ED4F38695E0
:1009200077956795B795F7959F5FC9F7880F911DE4
:100930009695879597F90895E1E0660F771F881FD0
:10094000BB1F621773078407BA0720F0621B730B83
:10095000840BBA0BEE1F88F7E0950895E89409C060
:1009600097FB3EF490958095709561957F4F8F4FE2
:100970009F4F9923A9F0F92F96E9BB279395F695F8
:10098000879577956795B795F111F8CFFAF4BB0F76
:1009900011F460FF1BC06F5F7F4F8F4F9F4F16C0DA
:1009A000882311F096E911C0772321F09EE8872F64
:1009B000762F05C0662371F096E8862F70E060E020
:1009C0002AF09A95660F771F881FDAF7880F969599
:1009D000879597F9089597F99F6780E870E060E040
:1009E00008959FEF80EC089500240A9416161706C8
:1009F00018060906089500240A9412161306140610
:100A000005060895092E0394000C11F4882352F072
:100A1000BB0F40F4BF2B11F460FF04C06F5F7F4F2A
:100A20008F4F9F4F089557FD9058440F551F59F011
:100A30005F3F71F04795880F97FB991F61F09F3FCB
:100A400079F087950895121613061406551FF2CFF4
:100A50004695F1DF08C0161617061806991FF1CF44
:100A600086957105610508940895E894BB2766276B
:100A70007727CB0197F908950E94AE0508F48FEF10
:100A800008950E9454050C9402050E94F40438F065
:100A90000E94FB0420F0952311F00C94EB040C94BD
:100AA000F10411240C9436050E94130570F3959FF0
:100AB000C1F3950F50E0551F629FF001729FBB2755
:100AC000F00DB11D639FAA27F00DB11DAA1F649FF1
:100AD0006627B00DA11D661F829F2227B00DA11DA4
:100AE000621F739FB00DA11D621F839FA00D611D2A
:100AF000221F749F3327A00D611D231F849F600D4B
:100B0000211D822F762F6A2F11249F5750409AF073
:100B1000F1F088234AF0EE0FFF1FBB1F661F771FFF
:100B2000881F91505040A9F79E3F510580F00C94CA
:100B3000EB040C9436055F3FE4F3983ED4F38695BE
:100B400077956795B795F795E7959F5FC1F7FE2B6A
:100B5000880F911D9695879597F90895990F00082C
:100B6000550FAA0BE0E8FEEF16161706E807F9077F
:100B7000C0F012161306E407F50798F0621B730B1A
:100B8000840B950B39F40A2661F0232B242B252B9B
:100B900021F408950A2609F4A140A6958FEF811D3E
:100BA000811D0895EF920F931F93CF93DF93E80178
:100BB00047FD02C034E001C034E1042E000C550BA7
:100BC00057FF03C0519541955109E32E022F242F61
:100BD000AE010E941706CE01DF91CF911F910F91B8
:100BE000EF900895BB274A3031F4992322F4BDE2F7
:100BF000909581959F4F0C94FE05BB27FB015527CF
:100C0000AA27880F991FAA1FA41710F0A41B839569
:100C10005051B9F7A05DAA3308F0A95DA1930097E0
:100C200079F7B111B1931192CB010C944908A9E065
:100C3000B0E0EDE1F6E00C945F086A01122FB02EEF
:100C40002BE3201720F0FF24F394F00E02C02CE3D6
:100C5000F22E0F2D27E0AE014F5F5F4F0E9471070C
:100C6000BC014981842F8970813031F0E1FC06C0DC
:100C7000E0FE06C090E205C09DE203C09BE201C019
:100C800090E05E2D507143FF3CC0911102C083E0A3
:100C900001C084E0811718F4212F281B01C020E037
:100CA00051110BC0F601822F30E2882319F03193E5
:100CB0008150FBCFC20ED11C20E0992329F0D60130
:100CC0009C93F60131966F01C6010396E2FE0AC0BD
:100CD0003EE4D6013C9341E411964C931197129651
:100CE0003C9306C03EE6F601308341E64183328301
:100CF000FC01322F40E2332309F442C041933150CA
:100D0000FACF42FF44C0911102C083E001C084E0E9
:100D1000811718F4212F281B01C020E051110BC0AE
:100D2000F601822F30E2882319F031938150FBCFF6
:100D3000C20ED11C20E0992329F0D6019C93F60124
:100D400031966F01C6010396E2FE0BC039E4D6016D
:100D50003C933EE411963C93119736E412963C93F3
:100D600007C039E6F60130833EE6318336E632834A
:100D7000FC01322F40E2332319F041933150FBCF75
:100D8000FC01E20FF11D10828EEF9FEFA6C021E063
:100D900030E0911102C020E030E0161617061CF476
:100DA000FB01319602C0E1E0F0E02E0F3F1FBB20B7
:100DB00021F0EB2DF0E0319602C0E0E0F0E02E0FE4
:100DC0003F1FE12FF0E02E173F071CF4121B212FCD
:100DD00001C020E08E2D887159F4F601822F30E297
:100DE000882319F031938150FBCFC20ED11C20E033
:100DF000992329F0D6019C93F60131966F01511188
:100E00000BC0F601822F90E3882319F09193815053
:100E1000FBCFC20ED11C20E00F2D060F9A81342F7C
:100E2000307144FF03C0913309F40150101624F4CB
:100E3000093018F008E001C001E0AB0177FF02C003
:100E400040E050E0FB01E41BF50BA1E0B0E0AC0F8B
:100E5000BD1FEA0FFB1F8EE2A82E4B01801A9108DE
:100E60000B2D10E01195019511094F3FBFEF5B0766
:100E700021F4D601AC9211966D01641775072CF020
:100E80008416950614F4818101C080E34150510914
:100E90003196D60111967D014017510724F0D601F5
:100EA0008C936701E2CF6417750739F4963320F409
:100EB000953319F4311101C081E3F6018083F70104
:100EC000822F90E2882319F091938150FBCFF70194
:100ED000E20FF11D108280E090E02996ECE00C9486
:100EE0007B08283008F027E03327DA01990F311DFD
:100EF00087FD916000966105710539F432602E5FBF
:100F00003D9330E32A95E1F708959F3F30F0803814
:100F10007105610509F03C5F3C5F3D93913008F03D
:100F20008068911DDF93CF931F930F93FF92EF92F1
:100F3000192F987F9695E92F96959695E90FFF279B
:100F4000EE53FF4F99273327EE24FF24A701E70133
:100F500005900894079428F4360FE71EF81E491FE1
:100F6000511D660F771F881F991F0694A1F70590E2
:100F7000079428F4E70EF81E491F561FC11D770F6E
:100F8000881F991F661F0694A1F70590079428F4FF
:100F9000F80E491F561FC71FD11D880F991F661FC6
:100FA000771F0694A1F70590079420F4490F561F68
:100FB000C71FD81F990F661F771F881F0694A9F7B0
:100FC00084911095177041F0D695C7955795479520
:100FD000F794E7941A95C1F7E8E6F0E06894159065
:100FE000159135916591959105907FE27395E11882
:100FF000F10A430B560BC90BD009C0F7E10CF11EE7
:10100000431F561FC91FD01D7EF4703311F48A95FB
:10101000E6CFE894015030F0080F0AF400270217D9
:1010200008F4202F2395022F7A3328F079E37D935B
:101030002A95E9F710C07D932A9589F6069497952D
:101040006795379517951794E118F10A430B560BDE
:10105000C90BD00998F023957E9173957A3308F0E7
:1010600070E37C932013B8F77E9170617D9330F02C
:10107000839571E37D9370E32A95E1F71124EF9056
:10108000FF900F911F91CF91DF91992787FD909548
:101090000895DC01FC01672F71917723E1F7329706
:1010A00004C07C916D9370836291AE17BF07C8F343
:1010B00008952F923F924F925F926F927F928F92FC
:1010C0009F92AF92BF92CF92DF92EF92FF920F93D7
:1010D0001F93CF93DF93CDB7DEB7CA1BDB0B0FB6E1
:1010E000F894DEBF0FBECDBF09942A88398848889E
:1010F0005F846E847D848C849B84AA84B984C88434
:10110000DF80EE80FD800C811B81AA81B981CE0F2A
:10111000D11D0FB6F894DEBF0FBECDBFED0108950F
:04112000F894FFCF71
:10112400567673203D200020560020207C20205637
:101134007473203D200020207C2020567375706538
:1011440072636170203D200020207C202054656D56
:1011540070203D200020430020207C2020546F7507
:0A1164006368203D20000D0A000022
:00000001FF
