:100000000C9434000C9451000C9451000C94510049
:100010000C9451000C9451000C9451000C9451001C
:100020000C9451000C9451000C9451000C9451000C
:100030000C9451000C9451000C9451000C945100FC
:100040000C9451000C9451000C9451000C945100EC
:100050000C9451000C9451000C9451000C945100DC
:100060000C9451000C94510011241FBECFEFD8E026
:10007000DEBFCDBF11E0A0E0B1E0EEE0F3E002C0F2
:1000800005900D92AC30B107D9F721E0ACE0B1E0BA
:1000900001C01D92A131B207E1F70E9440010C940A
:1000A00085010C9400001092C50087E68093C4007F
:1000B00088E08093C10086E08093C200089590910B
:1000C000C00095FFFCCF8093C6000895CF93DF93C7
:1000D000EC0103C00E945F00219688818111FACF54
:1000E000DF91CF910895CF93DF93CDB7DEB72897F7
:1000F0000FB6F894DEBF0FBECDBF4AE0BE016F5F02
:100100007F4F0E945001CE0101960E946600289602
:100110000FB6F894DEBF0FBECDBFDF91CF9108952B
:1001200087B18F7D87B988B18F7D88B984B18460AC
:1001300084B985B18B7F85B91092800010928100BF
:100140001092850010928400089587B1806287B96B
:1001500088B18F7D88B92AE62A95F1F700C087B16A
:100160008F7D87B988B18F7D88B9109285001092F4
:10017000840082E0809381000CC080918400909183
:100180008500883E934028F01092810088EE93E02D
:100190000895359BF2CF8091840090918500109254
:1001A00081000895CF92DF92EF92FF92CF93C0E04B
:1001B000C12CD12C76011CC00E94A50090930F0188
:1001C00080930E0180910E0190910F01883E934023
:1001D00010F580910E0190910F01C80ED91EE11CFF
:1001E000F11C8FE99FE00197F1F700C00000CF5F9D
:1001F000C83010F3689412F8F694E794D794C79433
:100200001694D1F7D0920D01C0920C0180910C018F
:1002100090910D0102C088EE93E0CF91FF90EF9096
:10022000DF90CF900895CF93DF930E94D200EC012E
:1002300080E091E00E946600CE010E94730089E098
:1002400091E00E946600C83E83E0D807B0F4809138
:10025000100181110AC0CF36D10578F081E080937A
:10026000100185B1846085B908C0C035D10528F476
:100270001092100185B18B7F85B9DF91CF910895E0
:100280000E9490000E9453000E9413012FEF89EFFB
:1002900090E0215080409040E1F700C00000F4CF92
:1002A000BB274A3031F4992322F4BDE29095819521
:1002B0009F4F0C945C01BB27FB015527AA27880F91
:1002C000991FAA1FA41710F0A41B83955051B9F7CA
:1002D000A05DAA3308F0A95DA193009779F7B11149
:1002E000B1931192CB010C947501DC01FC01672FD5
:1002F00071917723E1F7329704C07C916D937083FD
:0E0300006291AE17BF07C8F30895F894FFCFBF
:0C030E00636F756E74203D20000D0A0026
:00000001FF
